{"abi":[{"type":"constructor","inputs":[{"name":"noirVeriferAddress","type":"address","internalType":"address"},{"name":"tokenAddress","type":"address","internalType":"address"},{"name":"dataFeedAddress","type":"address","internalType":"address"}],"stateMutability":"nonpayable"},{"type":"function","name":"HashToAmountMap","inputs":[{"name":"","type":"bytes32","internalType":"bytes32"}],"outputs":[{"name":"","type":"uint256","internalType":"uint256"}],"stateMutability":"view"},{"type":"function","name":"bytes32ToUint256","inputs":[{"name":"b","type":"bytes32","internalType":"bytes32"}],"outputs":[{"name":"","type":"uint256","internalType":"uint256"}],"stateMutability":"pure"},{"type":"function","name":"customerPaying","inputs":[{"name":"_publicInputs","type":"bytes32[]","internalType":"bytes32[]"},{"name":"choice","type":"uint256","internalType":"uint256"}],"outputs":[],"stateMutability":"payable"},{"type":"function","name":"getChainlinkDataFeedLatestAnswer","inputs":[],"outputs":[{"name":"","type":"int256","internalType":"int256"}],"stateMutability":"view"},{"type":"function","name":"noirVerifier","inputs":[],"outputs":[{"name":"","type":"address","internalType":"contract INoirVerifier"}],"stateMutability":"view"},{"type":"function","name":"nullifiers","inputs":[{"name":"","type":"bytes32","internalType":"bytes32"}],"outputs":[{"name":"","type":"bool","internalType":"bool"}],"stateMutability":"view"},{"type":"function","name":"publicInput","inputs":[],"outputs":[{"name":"","type":"uint256","internalType":"uint256"}],"stateMutability":"view"},{"type":"function","name":"userReceiving","inputs":[{"name":"_proof","type":"bytes","internalType":"bytes"},{"name":"_publicInputs","type":"bytes32[]","internalType":"bytes32[]"},{"name":"choice","type":"uint256","internalType":"uint256"}],"outputs":[],"stateMutability":"nonpayable"}],"bytecode":{"object":"0x6080604052348015600f57600080fd5b50604051610b5d380380610b5d833981016040819052602c916088565b600080546001600160a01b039485166001600160a01b03199182161790915560028054938516938216939093179092556001805491909316911617905560c4565b80516001600160a01b0381168114608357600080fd5b919050565b600080600060608486031215609c57600080fd5b60a384606d565b925060af60208501606d565b915060bb60408501606d565b90509250925092565b610a8a806100d36000396000f3fe60806040526004361061007b5760003560e01c8063b4d653341161004e578063b4d653341461015a578063bea4dfb51461016d578063ddcd522014610182578063f9f16629146101a057600080fd5b80632997e86b1461008057806337308de4146100c557806356c89478146100fd57806363e8d6831461011f575b600080fd5b34801561008c57600080fd5b506100b061009b3660046107a5565b60046020526000908152604090205460ff1681565b60405190151581526020015b60405180910390f35b3480156100d157600080fd5b506000546100e5906001600160a01b031681565b6040516001600160a01b0390911681526020016100bc565b34801561010957600080fd5b5061011d61011836600461080a565b6101b6565b005b34801561012b57600080fd5b5061014c61013a3660046107a5565b60056020526000908152604090205481565b6040519081526020016100bc565b61011d6101683660046108a9565b61054f565b34801561017957600080fd5b5061014c610720565b34801561018e57600080fd5b5061014c61019d3660046107a5565b90565b3480156101ac57600080fd5b5061014c60035481565b600054604051633a94343960e21b81526001600160a01b039091169063ea50d0e4906101ec9088908890889088906004016108f5565b602060405180830381865afa158015610209573d6000803e3d6000fd5b505050506040513d601f19601f8201168201806040525081019061022d9190610959565b50600460008484600181811061024557610245610982565b602090810292909201358352508101919091526040016000205460ff16156102b45760405162461bcd60e51b815260206004820152601760248201527f50726f6f6620616c7265616479206e756c6c696669656400000000000000000060448201526064015b60405180910390fd5b60056000848460018181106102cb576102cb610982565b905060200201358152602001908152602001600020546000036103295760405162461bcd60e51b8152602060048201526016602482015275151c985b9cd858dd1a5bdb881b9bdd08199d5b99195960521b60448201526064016102ab565b600061034b8484600081811061034157610341610982565b9050602002013590565b90508160000361042c5760025460405163a9059cbb60e01b8152336004820152602481018390526000916001600160a01b03169063a9059cbb906044016020604051808303816000875af11580156103a7573d6000803e3d6000fd5b505050506040513d601f19601f820116820180604052508101906103cb9190610959565b9050806104265760405162461bcd60e51b8152602060048201526024808201527f5472616e73666572206661696c65643a20696e73756666696369656e7420746f6044820152636b656e7360e01b60648201526084016102ab565b50610502565b8160010361050257600061043e610720565b905060006104506305f5e10083610998565b61046284670de0b6b3a76400006109ba565b61046c9190610998565b604051909150600090339083908381818185875af1925050503d80600081146104b1576040519150601f19603f3d011682016040523d82523d6000602084013e6104b6565b606091505b50509050806104fe5760405162461bcd60e51b81526020600482015260146024820152732330b4b632b2103a379039b2b7321022ba3432b960611b60448201526064016102ab565b5050505b6001600460008686600181811061051b5761051b610982565b90506020020135815260200190815260200160002060006101000a81548160ff021916908315150217905550505050505050565b6105658383600081811061034157610341610982565b600560008585600181811061057c5761057c610982565b905060200201358152602001908152602001600020819055508060000361067b5760006105b58484600081811061034157610341610982565b6002546040516323b872dd60e01b8152336004820152306024820152604481018390529192506001600160a01b0316906323b872dd906064016020604051808303816000875af115801561060d573d6000803e3d6000fd5b505050506040513d601f19601f820116820180604052508101906106319190610959565b6106755760405162461bcd60e51b8152602060048201526015602482015274151bdad95b881d1c985b9cd9995c8819985a5b1959605a1b60448201526064016102ab565b50505050565b8060010361071b57600061069b8484600081811061034157610341610982565b905060006106a7610720565b90506305f5e1006000826106bb83866109ba565b6106c59190610998565b90508034146107165760405162461bcd60e51b815260206004820152601960248201527f496e636f72726563742045544820616d6f756e742073656e740000000000000060448201526064016102ab565b505050505b505050565b600080600160009054906101000a90046001600160a01b03166001600160a01b031663feaf968c6040518163ffffffff1660e01b815260040160a060405180830381865afa158015610776573d6000803e3d6000fd5b505050506040513d601f19601f8201168201806040525081019061079a9190610a04565b509195945050505050565b6000602082840312156107b757600080fd5b5035919050565b60008083601f8401126107d057600080fd5b50813567ffffffffffffffff8111156107e857600080fd5b6020830191508360208260051b850101111561080357600080fd5b9250929050565b60008060008060006060868803121561082257600080fd5b853567ffffffffffffffff8082111561083a57600080fd5b818801915088601f83011261084e57600080fd5b81358181111561085d57600080fd5b89602082850101111561086f57600080fd5b60209283019750955090870135908082111561088a57600080fd5b50610897888289016107be565b96999598509660400135949350505050565b6000806000604084860312156108be57600080fd5b833567ffffffffffffffff8111156108d557600080fd5b6108e1868287016107be565b909790965060209590950135949350505050565b6040815283604082015283856060830137600060608583018101829052601f19601f8701168301838103820160208501529081018490526001600160fb1b0384111561094057600080fd5b8360051b80866080840137016080019695505050505050565b60006020828403121561096b57600080fd5b8151801515811461097b57600080fd5b9392505050565b634e487b7160e01b600052603260045260246000fd5b6000826109b557634e487b7160e01b600052601260045260246000fd5b500490565b80820281158282048414176109df57634e487b7160e01b600052601160045260246000fd5b92915050565b805169ffffffffffffffffffff811681146109ff57600080fd5b919050565b600080600080600060a08688031215610a1c57600080fd5b610a25866109e5565b9450602086015193506040860151925060608601519150610a48608087016109e5565b9050929550929590935056fea2646970667358221220cde39718b51b04aa5aacefeb969103d49c42760df2bb752dd0701949999885c664736f6c63430008190033","linkReferences":{}},"methodIdentifiers":{"HashToAmountMap(bytes32)":"63e8d683","bytes32ToUint256(bytes32)":"ddcd5220","customerPaying(bytes32[],uint256)":"b4d65334","getChainlinkDataFeedLatestAnswer()":"bea4dfb5","noirVerifier()":"37308de4","nullifiers(bytes32)":"2997e86b","publicInput()":"f9f16629","userReceiving(bytes,bytes32[],uint256)":"56c89478"},"id":23}