{
    "abi": [
        {
            "type": "constructor",
            "inputs": [],
            "stateMutability": "nonpayable"
        },
        {
            "type": "function",
            "name": "allowance",
            "inputs": [
                {
                    "name": "_owner",
                    "type": "address",
                    "internalType": "address"
                },
                {
                    "name": "_spender",
                    "type": "address",
                    "internalType": "address"
                }
            ],
            "outputs": [
                {
                    "name": "",
                    "type": "uint256",
                    "internalType": "uint256"
                }
            ],
            "stateMutability": "view"
        },
        {
            "type": "function",
            "name": "approve",
            "inputs": [
                {
                    "name": "_spender",
                    "type": "address",
                    "internalType": "address"
                },
                {
                    "name": "_amount",
                    "type": "uint256",
                    "internalType": "uint256"
                }
            ],
            "outputs": [
                {
                    "name": "",
                    "type": "bool",
                    "internalType": "bool"
                }
            ],
            "stateMutability": "nonpayable"
        },
        {
            "type": "function",
            "name": "balanceOf",
            "inputs": [
                {
                    "name": "_account",
                    "type": "address",
                    "internalType": "address"
                }
            ],
            "outputs": [
                {
                    "name": "",
                    "type": "uint256",
                    "internalType": "uint256"
                }
            ],
            "stateMutability": "view"
        },
        {
            "type": "function",
            "name": "burn",
            "inputs": [
                {
                    "name": "_amount",
                    "type": "uint256",
                    "internalType": "uint256"
                }
            ],
            "outputs": [],
            "stateMutability": "nonpayable"
        },
        {
            "type": "function",
            "name": "decimals",
            "inputs": [],
            "outputs": [
                {
                    "name": "",
                    "type": "uint8",
                    "internalType": "uint8"
                }
            ],
            "stateMutability": "view"
        },
        {
            "type": "function",
            "name": "master",
            "inputs": [],
            "outputs": [
                {
                    "name": "",
                    "type": "address",
                    "internalType": "address"
                }
            ],
            "stateMutability": "view"
        },
        {
            "type": "function",
            "name": "mint",
            "inputs": [
                {
                    "name": "_amount",
                    "type": "uint256",
                    "internalType": "uint256"
                }
            ],
            "outputs": [],
            "stateMutability": "nonpayable"
        },
        {
            "type": "function",
            "name": "mintByMaster",
            "inputs": [
                {
                    "name": "_amount",
                    "type": "uint256",
                    "internalType": "uint256"
                },
                {
                    "name": "_address",
                    "type": "address",
                    "internalType": "address"
                }
            ],
            "outputs": [],
            "stateMutability": "nonpayable"
        },
        {
            "type": "function",
            "name": "name",
            "inputs": [],
            "outputs": [
                {
                    "name": "",
                    "type": "string",
                    "internalType": "string"
                }
            ],
            "stateMutability": "view"
        },
        {
            "type": "function",
            "name": "symbol",
            "inputs": [],
            "outputs": [
                {
                    "name": "",
                    "type": "string",
                    "internalType": "string"
                }
            ],
            "stateMutability": "view"
        },
        {
            "type": "function",
            "name": "timestamp",
            "inputs": [],
            "outputs": [
                {
                    "name": "",
                    "type": "uint256",
                    "internalType": "uint256"
                }
            ],
            "stateMutability": "view"
        },
        {
            "type": "function",
            "name": "totalSupply",
            "inputs": [],
            "outputs": [
                {
                    "name": "",
                    "type": "uint256",
                    "internalType": "uint256"
                }
            ],
            "stateMutability": "view"
        },
        {
            "type": "function",
            "name": "transfer",
            "inputs": [
                {
                    "name": "_recipient",
                    "type": "address",
                    "internalType": "address"
                },
                {
                    "name": "_amount",
                    "type": "uint256",
                    "internalType": "uint256"
                }
            ],
            "outputs": [
                {
                    "name": "",
                    "type": "bool",
                    "internalType": "bool"
                }
            ],
            "stateMutability": "nonpayable"
        },
        {
            "type": "function",
            "name": "transferFrom",
            "inputs": [
                {
                    "name": "_sender",
                    "type": "address",
                    "internalType": "address"
                },
                {
                    "name": "_recipient",
                    "type": "address",
                    "internalType": "address"
                },
                {
                    "name": "_amount",
                    "type": "uint256",
                    "internalType": "uint256"
                }
            ],
            "outputs": [
                {
                    "name": "",
                    "type": "bool",
                    "internalType": "bool"
                }
            ],
            "stateMutability": "nonpayable"
        },
        {
            "type": "event",
            "name": "Approval",
            "inputs": [
                {
                    "name": "owner",
                    "type": "address",
                    "indexed": true,
                    "internalType": "address"
                },
                {
                    "name": "spender",
                    "type": "address",
                    "indexed": true,
                    "internalType": "address"
                },
                {
                    "name": "value",
                    "type": "uint256",
                    "indexed": false,
                    "internalType": "uint256"
                }
            ],
            "anonymous": false
        },
        {
            "type": "event",
            "name": "Transfer",
            "inputs": [
                {
                    "name": "from",
                    "type": "address",
                    "indexed": true,
                    "internalType": "address"
                },
                {
                    "name": "to",
                    "type": "address",
                    "indexed": true,
                    "internalType": "address"
                },
                {
                    "name": "value",
                    "type": "uint256",
                    "indexed": false,
                    "internalType": "uint256"
                }
            ],
            "anonymous": false
        }
    ],
    "bytecode": {
        "object": "0x60c0604052600a60809081526929b1b937b63621b7b4b760b11b60a0526000906100299082610152565b50604080518082019091526002815261534360f01b60208201526001906100509082610152565b506002805460ff1916601217905534801561006a57600080fd5b5060028054610100600160a81b031916336101008102919091179091556e01bbbbf868fa2cfecc335a00000000600381905560009182526004602052604090912055610211565b634e487b7160e01b600052604160045260246000fd5b600181811c908216806100db57607f821691505b6020821081036100fb57634e487b7160e01b600052602260045260246000fd5b50919050565b601f82111561014d576000816000526020600020601f850160051c8101602086101561012a5750805b601f850160051c820191505b8181101561014957828155600101610136565b5050505b505050565b81516001600160401b0381111561016b5761016b6100b1565b61017f8161017984546100c7565b84610101565b602080601f8311600181146101b4576000841561019c5750858301515b600019600386901b1c1916600185901b178555610149565b600085815260208120601f198616915b828110156101e3578886015182559484019460019091019084016101c4565b50858210156102015787850151600019600388901b60f8161c191681555b5050505050600190811b01905550565b61083c806102206000396000f3fe608060405234801561001057600080fd5b50600436106100ea5760003560e01c806395d89b411161008c578063a9059cbb11610066578063a9059cbb146101d6578063b80777ea146101e9578063dd62ed3e146101ef578063ee97f7f31461022857600080fd5b806395d89b41146101a85780639de55538146101b0578063a0712d68146101c357600080fd5b806323b872dd116100c857806323b872dd14610142578063313ce5671461015557806342966c681461016a57806370a082311461017f57600080fd5b806306fdde03146100ef578063095ea7b31461010d57806318160ddd14610130575b600080fd5b6100f7610258565b604051610104919061060e565b60405180910390f35b61012061011b366004610679565b6102ea565b6040519015158152602001610104565b6003545b604051908152602001610104565b6101206101503660046106a3565b610301565b60025460405160ff9091168152602001610104565b61017d6101783660046106df565b610350565b005b61013461018d3660046106f8565b6001600160a01b031660009081526004602052604090205490565b6100f76103b6565b61017d6101be36600461071a565b6103c5565b61017d6101d13660046106df565b6104aa565b6101206101e4366004610679565b610509565b42610134565b6101346101fd366004610746565b6001600160a01b03918216600090815260056020908152604080832093909416825291909152205490565b6002546102409061010090046001600160a01b031681565b6040516001600160a01b039091168152602001610104565b60606000805461026790610770565b80601f016020809104026020016040519081016040528092919081815260200182805461029390610770565b80156102e05780601f106102b5576101008083540402835291602001916102e0565b820191906000526020600020905b8154815290600101906020018083116102c357829003601f168201915b5050505050905090565b60006102f7338484610516565b5060015b92915050565b6001600160a01b038316600090815260056020908152604080832033808552925282205461033b9186916103369086906107c0565b610516565b610346848484610578565b5060019392505050565b3360009081526004602052604090205461036b9082906107c0565b336000908152600460205260409020556003546103899082906107c0565b60035560405181815260009033906000805160206107e7833981519152906020015b60405180910390a350565b60606001805461026790610770565b60025461010090046001600160a01b0316336001600160a01b0316146104295760405162461bcd60e51b81526020600482015260156024820152742a37b5b2b71d1024a72b20a624a22fa6a0a9aa22a960591b604482015260640160405180910390fd5b6001600160a01b03811660009081526004602052604090205461044d9083906107d3565b6001600160a01b0382166000908152600460205260409020556003546104749083906107d3565b6003556040518281526001600160a01b038216906000906000805160206107e78339815191529060200160405180910390a35050565b336000908152600460205260409020546104c59082906107d3565b336000908152600460205260409020556003546104e39082906107d3565b60035560405181815233906000906000805160206107e7833981519152906020016103ab565b60006102f7338484610578565b6001600160a01b0383811660008181526005602090815260408083209487168084529482529182902085905590518481527f8c5be1e5ebec7d5bd14f71427d1e84f3dd0314c0f7b2291e5b200ac8c7c3b92591015b60405180910390a3505050565b6001600160a01b03831660009081526004602052604090205461059c9082906107c0565b6001600160a01b0380851660009081526004602052604080822093909355908416815220546105cc9082906107d3565b6001600160a01b0380841660008181526004602052604090819020939093559151908516906000805160206107e78339815191529061056b9085815260200190565b60006020808352835180602085015260005b8181101561063c57858101830151858201604001528201610620565b506000604082860101526040601f19601f8301168501019250505092915050565b80356001600160a01b038116811461067457600080fd5b919050565b6000806040838503121561068c57600080fd5b6106958361065d565b946020939093013593505050565b6000806000606084860312156106b857600080fd5b6106c18461065d565b92506106cf6020850161065d565b9150604084013590509250925092565b6000602082840312156106f157600080fd5b5035919050565b60006020828403121561070a57600080fd5b6107138261065d565b9392505050565b6000806040838503121561072d57600080fd5b8235915061073d6020840161065d565b90509250929050565b6000806040838503121561075957600080fd5b6107628361065d565b915061073d6020840161065d565b600181811c9082168061078457607f821691505b6020821081036107a457634e487b7160e01b600052602260045260246000fd5b50919050565b634e487b7160e01b600052601160045260246000fd5b818103818111156102fb576102fb6107aa565b808201808211156102fb576102fb6107aa56feddf252ad1be2c89b69c2b068fc378daa952ba7f163c4a11628f55a4df523b3efa26469706673582212206b640ffc9f051c9be092e1cd6741cd855f8731f999204a7d5657a3e86b81d86d64736f6c63430008190033",
        "linkReferences": {}
    },
    "methodIdentifiers": {
        "allowance(address,address)": "dd62ed3e",
        "approve(address,uint256)": "095ea7b3",
        "balanceOf(address)": "70a08231",
        "burn(uint256)": "42966c68",
        "decimals()": "313ce567",
        "master()": "ee97f7f3",
        "mint(uint256)": "a0712d68",
        "mintByMaster(uint256,address)": "9de55538",
        "name()": "06fdde03",
        "symbol()": "95d89b41",
        "timestamp()": "b80777ea",
        "totalSupply()": "18160ddd",
        "transfer(address,uint256)": "a9059cbb",
        "transferFrom(address,address,uint256)": "23b872dd"
    },
    "id": 4
}